:100000000C9434010C9446010C9446010C94460166
:100010000C9446010C9446010C9446010C94460144
:100020000C9446010C9446010C9446010C94460134
:100030000C9446010C9446010C9448010C94460122
:100040000C9446010C9446010C9446010C94460114
:100050000C9446010C9446010C9446010C94460104
:100060000C9446010C944601808183848687898A9A
:100070008C8E8F9192949597989A9B9D9EA0A2A307
:10008000A5A6A7A9AAACADAFB0B2B3B5B6B7B9BA79
:10009000BCBDBEC0C1C2C4C5C6C8C9CACBCDCECF07
:1000A000D0D2D3D4D5D6D7D9DADBDCDDDEDFE0E1C0
:1000B000E2E3E4E5E6E7E8E9EAEAEBECEDEEEEEFB1
:1000C000F0F1F1F2F3F3F4F5F5F6F6F7F8F8F9F9E3
:1000D000FAFAFAFBFBFCFCFCFDFDFDFDFEFEFEFE5C
:1000E000FEFFFFFFFFFFFFFFFFFFFFFFFFFFFFFF21
:1000F000FEFEFEFEFEFDFDFDFDFCFCFCFBFBFAFA38
:10010000FAF9F9F8F8F7F6F6F5F5F4F3F3F2F1F198
:10011000F0EFEEEEEDECEBEAEAE9E8E7E6E5E4E342
:10012000E2E1E0DFDEDDDCDBDAD9D7D6D5D4D3D22D
:10013000D0CFCECDCBCAC9C8C6C5C4C2C1C0BEBD52
:10014000BCBAB9B7B6B5B3B2B0AFADACAAA9A7A6A1
:10015000A5A3A2A09E9D9B9A9897959492918F8E0D
:100160008C8A898786848381807E7C7B797876758A
:100170007371706E6D6B6A6867656462615F5D5C08
:100180005A595856555352504F4D4C4A4948464576
:100190004342413F3E3D3B3A3937363534323130C8
:1001A0002F2D2C2B2A2928262524232221201F1EEF
:1001B0001D1C1B1A191817161515141312111110DE
:1001C0000F0E0E0D0C0C0B0A0A090908070706068C
:1001D00005050504040303030202020201010101F3
:1001E000010000000000000000000000000000000E
:1001F00001010101010202020203030304040505D7
:1002000005060607070809090A0A0B0C0C0D0E0E55
:100210000F1011111213141515161718191A1B1C8B
:100220001D1E1F2021222324252628292A2B2C2D80
:100230002F30313234353637393A3B3D3E3F41423B
:1002400043454648494A4C4D4F50525355565859CC
:100250005A5C5D5F6162646567686A6B6D6E707140
:1002600073757678797B7C7E11241FBECFEFD8E042
:10027000DEBFCDBF11E0A0E0B1E001C01D92A7300C
:10028000B107E1F70E94B1010C94BC010C9400008D
:100290001F920F920FB60F9211242F933F934F93FB
:1002A0005F938F939F93AF93BF93EF93FF9380914F
:1002B000000190910101A0910201B091030101960A
:1002C000A11DB11D8093000190930101A093020133
:1002D000B09303018E509340A040B040F1F41092CF
:1002E000000110920101109202011092030180910D
:1002F000050190910601FC01E859FF4FE491E0935C
:10030000040101969093060180930501815092406B
:1003100021F410920601109205018091040190E0F1
:10032000A0E0B0E020910001309101014091020174
:1003300050910301281739074A075B0710F42D9ADB
:1003400001C02D98FF91EF91BF91AF919F918F9137
:100350005F914F913F912F910F900FBE0F901F9083
:100360001895259A82E084BD91E095BD9FE997BDDF
:0C03700080936E007894FFCFF894FFCFCC
:00000001FF
